:0400000056EF00F0C7
:060008005C8285EF12F09E
:100018005C80D8CF01F0E8CF02F0E0CF03F00E010A
:1000280035A119EF00F01BEF00F04EEF00F05B5028
:10003800D8B421EF00F024EF00F0010E25EF00F016
:10004800000E5B6E0001CBBF32EF00F0CB5108E130
:10005800CA05D8A032EF00F034EF00F042EF00F00C
:10006800CBBF40EF00F0CB5109E1050ECA5DD8A027
:1000780040EF00F042EF00F04CEF00F05BB002D030
:100088007C9E01D07C8E5BB002D0809601D08086A9
:100098000E01359103C0E0FF02C0E8FF01C0D8FFA0
:0800A8005C90100079EF13F0E9
:100E00000054696D6520253032643A253032643AE9
:100E1000253032642020256400446174652025302B
:100E200032642F253032642F25303464000045C0F1
:100E3000D9FF46C0DAFFDECFF6FFDDCFF7FF000EA9
:100E4000F86E0800F550250AD8A429EF07F02BEF1B
:100E500007F0BFEF08F045C0D9FF46C0DAFFDE2A31
:100E6000000EDD22000E0001A76F000EA66FA6C0C7
:100E700059F0A7C05AF0A869A969000E566E000E75
:100E8000556E8BEF07F0598045C0D9FF46C0DAFF99
:100E9000DE2A000EDD228BEF07F0598244EF07F0C7
:100EA000598444EF07F0598644EF07F0598844EF1E
:100EB00007F0000E566E010E556E8BEF07F045C021
:100EC000D9FF46C0DAFFDECFF6FFDDCFF7FF000E19
:100ED000F86E0800F550496E4A6A4A50000AD8B4C4
:100EE00074EF07F059EF07F04950200AD8B453EFD8
:100EF00007F0030AD8B456EF07F0080AD8B450EF49
:100F000007F0060AD8B443EF07F01D0AD8B44DEF36
:100F100007F059EF07F055505610D8B492EF07F08C
:100F200094EF07F05FEF07F059A099EF07F09BEF00
:100F300007F09CEF07F0599245C0D9FF46C0DAFF91
:100F4000DECFF6FFDDCFF7FF000EF86E0800F5509C
:100F50002A0AD8A4AEEF07F0B0EF07F0DAEF07F0F7
:100F600045C0D9FF46C0DAFFDE2A000EDD2247C0A9
:100F7000D9FF48C0DAFFDFCF49F0020EDE26DFCF0F
:100F80004AF0000EDD2249C0D9FF4AC0DAFFDECFA9
:100F9000A6F0DDCFA7F00001A7BFD3EF07F0D1EF98
:100FA00007F01FEF08F05980A66DA71FD8B0A72B38
:100FB0001FEF08F045C0D9FF46C0DAFFDECF0BF0C7
:100FC000DDCF0CF0A6EC0BF00BC0A6F00CC0A7F028
:100FD000F1EF07F045C0D9FF46C0DAFFDE2A000E68
:100FE000DD22D00E496EFF0E4A6E45C0D9FF46C0C5
:100FF000DAFFDECFF6FFDDCFF7FF000EF86E080058
:10100000F5504B6E4C6A49504B264A504C224C507E
:101010000AE10A0E4B5CD8A010EF08F013EF08F0BD
:10102000010E14EF08F0000E576E586A5750581012
:10103000D8A41DEF08F01FEF08F0EAEF07F045C055
:10104000D9FF46C0DAFFDECFF6FFDDCFF7FF000E97
:10105000F86E0800F550640AD8B431EF08F033EFA9
:1010600008F047EF08F045C0D9FF46C0DAFFDECFF1
:10107000F6FFDDCFF7FF000EF86E0800F550690AA5
:10108000D8A445EF08F047EF08F087EF08F045C017
:10109000D9FF46C0DAFFDE2A000EDD2247C0D9FFA5
:1010A00048C0DAFFDFCF49F0020EDE26DFCF4AF07C
:1010B000000EDD2249C0D9FF4AC0DAFFDECF4DF075
:1010C000DDCF4EF0000E4EBEFF0E4F6E506E516ED5
:1010D000526E536E546E43C01FF044C020F04DC09A
:1010E00021F04EC022F04FC023F050C024F051C078
:1010F00025F052C026F053C027F054C028F0DDEC94
:1011000008F01FC043F020C044F0DCEF08F045C0F9
:10111000D9FF46C0DAFFDECFF6FFDDCFF7FF000EC6
:10112000F86E0800F550250AD8A499EF08F09BEF57
:1011300008F0B2EF08F045C0D9FF46C0DAFFDE2A5A
:10114000000EDD22000E056E250E046E43C006F073
:1011500044C007F057EC10F0000E446E010E436ED1
:10116000DCEF08F045C0D9FF46C0DAFFDE2A000EEA
:10117000DD22000E446E000E436EDCEF08F045C029
:10118000D9FF46C0DAFFDECFF6FFDDCFF7FF000E56
:10119000F86E0800F550046E056A43C006F044C0BE
:1011A00007F057EC10F045C0D9FF46C0DAFFDE2A41
:1011B000000EDD22ACEF08F0120021C039F022C091
:1011C0003AF023C03BF024C03CF025C03DF026C0DF
:1011D0003EF027C03FF028C040F040BEF2EF08F0DC
:1011E000F5EF08F0010EF6EF08F0000E376E386AE2
:1011F00037503810D8B4FFEF08F001EF09F011EFC5
:1012000009F0401E3F1E3E1E3D1E3C1E3B1E3A1E68
:10121000396C000E3A223B223C223D223E223F22E4
:1012200040220001A9BF17EF09F019EF09F01AEFEA
:1012300009F05992A9BF27EF09F0A95106E1A805C5
:10124000D8B025EF09F027EF09F02DEF09F0000ED7
:10125000346E010E336E31EF09F0A8C033F0A9C02F
:1012600034F0A6C035F0A7C036F037503810D8A4F7
:101270003CEF09F03EEF09F045EF09F059A443EFC8
:1012800009F045EF09F048EF09F03506D8A0360619
:10129000000E426E1F0E416E000EC96FCCEF09F0BA
:1012A0004106D8A04206AA0E4124D96E000E422063
:1012B000DA6E39C004F03AC005F03BC006F03CC01D
:1012C00007F03DC008F03EC009F03FC00AF040C042
:1012D0000BF00A0E0C6E000E0D6E000E0E6E000E60
:1012E0000F6E000E106E000E116E000E126E000ECC
:1012F000136EF1EC0DF004C029F005C02AF006C011
:101300002BF007C02CF008C02DF009C02EF00AC049
:101310002FF00BC030F029C016F02BC017F0E4EC12
:1013200013F01650300FDF6E3306D8A034063506A2
:10133000D8A0360639C004F03AC005F03BC006F02C
:101340003CC007F03DC008F03EC009F03FC00AF0C5
:1013500040C00BF00A0E0C6E000E0D6E000E0E6EED
:10136000000E0F6E000E106E000E116E000E126E4B
:10137000000E136E78EC0CF004C039F005C03AF0A2
:1013800006C03BF007C03CF008C03DF009C03EF08D
:101390000AC03FF00BC040F042BED7EF09F0425008
:1013A00008E14104D8A0D7EF09F0D9EF09F009EF1F
:1013B0000AF039503A103B103C103D103E103F10DF
:1013C0004010D8A4E6EF09F0E8EF09F050EF09F07B
:1013D00034BEF5EF09F0345006E13304D8B0F3EF32
:1013E00009F0F5EF09F050EF09F036BE00EF0AF012
:1013F000365008E13504D8A000EF0AF002EF0AF0F9
:1014000009EF0AF059B207EF0AF009EF0AF050EFBE
:1014100009F037503810D8A410EF0AF012EF0AF094
:1014200019EF0AF059A417EF0AF019EF0AF037EF95
:101430000AF04106D8A0420637503810D8A423EF4E
:101440000AF025EF0AF02BEF0AF0000E326E2B0E99
:10145000316E2FEF0AF0000E326E2D0E316EAA0E95
:101460004124D96E000E4220DA6E31C0DFFF1FC06A
:1014700014F020C015F0AA0E4124166E000E422072
:10148000176E35C018F036C019F01EEC11F014C0FC
:101490001FF015C020F0120018C0D9FF19C0DAFFE4
:1014A000180EDE18DE10D8A458EF0AF05AEF0AF032
:1014B000A5EF0BF01AC0D9FF1BC0DAFF010EDBBE8F
:1014C0006BEF0AF0010EDB5008E1DE04D8A06BEFF1
:1014D0000AF06DEF0AF08AEF0AF01AC0D9FF1BC0BC
:1014E000DAFF010EDBBE81EF0AF0010EDB5007E1EF
:1014F0001C0EDE5CD8B07FEF0AF081EF0AF08AEFB5
:101500000AF01AC0D9FF1BC0DAFFDE2A000EDD2266
:101510009DEF0BF01AC0D9FF1BC0DAFF1C0EDE18BE
:10152000DE10D8A496EF0AF098EF0AF0FCEF0AF06C
:101530001CC0D9FF1DC0DAFF020EDE18DE10D8A4D1
:10154000A4EF0AF0A6EF0AF081EF0AF01EC0D9FF5F
:101550001FC0DAFFDECF12F0DDCF13F0010E156EE3
:10156000900E146EDBEC11F012501310D8A4BBEFE8
:101570000AF0BDEF0AF0D4EF0AF01EC0D9FF1FC079
:10158000DAFFDECF12F0DDCF13F0000E156E640E21
:10159000146EDBEC11F012501310D8A4D2EF0AF045
:1015A000D4EF0AF081EF0AF01EC0D9FF1FC0DAFFA6
:1015B000DECF22F0DDCF23F0030E2216000E23161D
:1015C00022502310D8A4E7EF0AF0E9EF0AF0EBEF7E
:1015D0000AF081EF0AF01AC0D9FF1BC0DAFF010E32
:1015E000DE6E000EDD6E1CC0D9FF1DC0DAFFDE2AE4
:1015F000000EDD229DEF0BF01AC0D9FF1BC0DAFFF1
:101600001D0EDE18DE10D8A408EF0BF00AEF0BF069
:101610001AEF0BF01CC0D9FF1DC0DAFF020EDE1856
:10162000DE10D8A416EF0BF018EF0BF081EF0AF0E4
:10163000EBEF0AF01AC0D9FF1BC0DAFF1E0EDE184E
:10164000DE10D8A426EF0BF028EF0BF062EF0BF0C2
:101650001CC0D9FF1DC0DAFF040EDE18DE10D8B49E
:1016600034EF0BF036EF0BF0EBEF0AF01CC0D9FFB4
:101670001DC0DAFF060EDE18DE10D8B442EF0BF004
:1016800044EF0BF0EBEF0AF01CC0D9FF1DC0DAFFEE
:10169000090EDE18DE10D8B450EF0BF052EF0BF04D
:1016A000EBEF0AF01CC0D9FF1DC0DAFF0B0EDE18ED
:1016B000DE10D8A45EEF0BF060EF0BF081EF0AF0C4
:1016C000EBEF0AF01AC0D9FF1BC0DAFF1F0EDE18BD
:1016D000DE10D8A46EEF0BF070EF0BF09DEF0BF067
:1016E0001AC0D9FF1BC0DAFF010EDE6E000EDD6EE0
:1016F0001CC0D9FF1DC0DAFF0C0EDE18DE10D8A406
:1017000084EF0BF086EF0BF0F3EF0AF01CC0D9FF6B
:101710001DC0DAFF010EDE6E000EDD6E1EC0D9FFA9
:101720001FC0DAFFDE2A000EDD2220C0D9FF21C053
:10173000DAFF000EDE6E000EDD6E18C0D9FF19C094
:10174000DAFF000EDE6E000EDD6E1200000E196E66
:10175000000E186E000E126E000E116EB2EF0BF03E
:101760000B4A0C2A010E176E0BC0F6FF0CC0F7FFD8
:10177000000EF86E0800F550200AD8B4C2EF0BF046
:10178000C4EF0BF0E3EF0BF0F70E0D6EFF0E0E6ED5
:101790000BC0F6FF0CC0F7FF000EF86E0800F55006
:1017A0000F6E106A0D500F260E501022105009E1D6
:1017B000050E0F5CD8A0DFEF0BF0E1EF0BF0E3EFCD
:1017C0000BF0000E176E17C013F0146A13501410AC
:1017D000D8A4EDEF0BF0EFEF0BF0B0EF0BF0F9EF5B
:1017E0000BF0000E126E010E116E0B4A0C2A32EF36
:1017F0000CF00BC0F6FF0CC0F7FF000EF86E0800EF
:10180000F5500D6E0E6A0E50000AD8B40AEF0CF0B7
:1018100032EF0CF00D502B0AD8B4F5EF0BF0060A9E
:10182000D8B4F1EF0BF032EF0CF018C004F019C08F
:1018300005F0000E076E0A0E066E9CEC14F00BC04D
:10184000F6FF0CC0F7FF000EF86E0800F550045EBE
:10185000000E055A300E0424186E000E0520196E75
:10186000F5EF0BF0D00E0D6EFF0E0E6E0BC0F6FFF7
:101870000CC0F7FF000EF86E0800F5500F6E106AEE
:101880000D500F260E50102210500AE10A0E0F5C68
:10189000D8A04DEF0CF050EF0CF0010E51EF0CF012
:1018A000000E156E166A15501610D8A45AEF0CF0DB
:1018B0005CEF0CF015EF0CF011501210D8A463EF90
:1018C0000CF065EF0CF073EF0CF018C00DF019C0C0
:1018D0000EF00D1E0E1E0D4A0E2A0DC00BF00EC08E
:1018E0000CF077EF0CF018C00BF019C00CF01200E0
:1018F000000E156E13BE81EF0CF07FEF0CF093EF2E
:101900000CF0131E121E111E101E0F1E0E1E0D1E99
:101910000C6C000E0D220E220F2210221122122218
:101920001322010E156E0BBE9AEF0CF098EF0CF01F
:10193000ACEF0CF00B1E0A1E091E081E071E061E29
:10194000051E046C000E0522062207220822092229
:101950000A220B22010E151A20EE16F0070EDE6A7F
:10196000E806FDE20C500D100E100F1010101110B3
:1019700012101310D8B4BFEF0CF0C1EF0CF013EF3E
:101980000DF0010E146ECFEF0CF0D8900C360D3622
:101990000E360F361036113612361336142A13AEA1
:1019A000D4EF0CF0D6EF0CF0C5EF0CF0D890163653
:1019B0001736183619361A361B361C361D360C509B
:1019C000045C0D5005580E5006580F500758105023
:1019D00008581150095812500A5813500B58D8A0E3
:1019E000F4EF0CF0F6EF0CF007EF0DF00C50045E86
:1019F0000D50055A0E50065A0F50075A1050085AEB
:101A00001150095A12500A5A13500B5A1680D89086
:101A100013321232113210320F320E320D320C32BA
:101A2000142ED6EF0CF01550D8B419EF0DF01BEFB3
:101A30000DF02BEF0DF01D1E1C1E1B1E1A1E191E75
:101A4000181E171E166C000E1722182219221A22B1
:101A50001B221C221D2216C004F017C005F018C05E
:101A600006F019C007F01AC008F01BC009F01CC02E
:101A70000AF01DC00BF0120004A041EF0DF043EF7F
:101A80000DF046EF0DF07F8047EF0DF07F900534AD
:101A90000530076E0430066E06A051EF0DF053EFCF
:101AA0000DF056EF0DF07F8257EF0DF07F9204C0DE
:101AB00006F005C007F00734073206320734073254
:101AC000063206A066EF0DF068EF0DF06BEF0DF03B
:101AD00079846CEF0DF0799404C006F005C007F02E
:101AE000073407320632073407320632073407322A
:101AF000063206A07EEF0DF080EF0DF083EF0DF0C3
:101B00007E8C84EF0DF07E9C04C006F005C007F0CB
:101B1000040E086E073407320632082E8AEF0DF0E5
:101B200006A095EF0DF097EF0DF09AEF0DF0798884
:101B30009BEF0DF0799804C006F005C007F0050E84
:101B4000086E073407320632082EA1EF0DF006A00A
:101B5000ACEF0DF0AEEF0DF0B1EF0DF0798AB2EF12
:101B60000DF0799A04C006F005C007F0060E086E65
:101B7000073407320632082EB8EF0DF006A0C3EF87
:101B80000DF0C5EF0DF0C8EF0DF07E80C9EF0DF040
:101B90007E9004C006F005C007F0070E086E0734FB
:101BA00007320632082ECFEF0DF006A0DAEF0DF067
:101BB000DCEF0DF0DFEF0DF07A80E0EF0DF07A90C2
:101BC00005C006F0076A06BE076806A0EAEF0DF03A
:101BD000ECEF0DF0EFEF0DF07A82F0EF0DF07A926E
:101BE0001200000E156E0BBEFAEF0DF0F8EF0DF0BF
:101BF0000CEF0EF00B1E0A1E091E081E071E061E05
:101C0000051E046C000E0522062207220822092266
:101C10000A220B22010E156E13BE13EF0EF011EF08
:101C20000EF023EF0EF0131E121E111E101E0F1EBB
:101C30000E1E0D1E0C6C000E0D220E220F22102205
:101C40001122122213220C500D100E100F10101022
:101C5000111012101310D8B430EF0EF032EF0EF056
:101C60007AEF0EF0010E146E40EF0EF0D8900C36A5
:101C70000D360E360F361036113612361336142A3C
:101C800013AE45EF0EF047EF0EF036EF0EF00C50AE
:101C9000045C0D5005580E5006580F500758105050
:101CA00008581150095812500A5813500B58D8A010
:101CB0005CEF0EF05EEF0EF06EEF0EF00C50045E77
:101CC0000D50055A0E50065A0F50075A1050085A18
:101CD0001150095A12500A5A13500B5AD890133205
:101CE0001232113210320F320E320D320C32142EEB
:101CF00047EF0EF01550D8B480EF0EF082EF0EF0E3
:101D000092EF0EF00B1E0A1E091E081E071E061E6D
:101D1000051E046C000E0522062207220822092255
:101D20000A220B2204C004F005C005F006C006F02C
:101D300007C007F008C008F009C009F00AC00AF09F
:101D40000BC00BF0120007BEAFEF0EF0075009E119
:101D5000190E065CD8A0AFEF0EF0B1EF0EF0E9EF70
:101D60000EF007BEBFEF0EF0075007E1200E065C35
:101D7000D8B0BDEF0EF0BFEF0EF0E9EF0EF0030E9E
:101D800008180910D8A4C7EF0EF0C9EF0EF0E9EF5C
:101D90000EF00A500B10D8A4D0EF0EF0D2EF0EF0D8
:101DA000E9EF0EF004C0D9FF05C0DAFFDE04DE1053
:101DB000D8A4DDEF0EF0DFEF0EF043EF0FF004C01C
:101DC000D9FF05C0DAFF020EDE6E000EDD6E43EFB6
:101DD0000FF007BEF5EF0EF0075009E1190E065C93
:101DE000D8A0F5EF0EF0F7EF0EF043EF0FF007BEBF
:101DF00005EF0FF0075007E1200E065CD8B003EFA7
:101E00000FF005EF0FF043EF0FF00A0E081809105E
:101E1000D8A40DEF0FF00FEF0FF043EF0FF00A50C3
:101E20000B10D8A416EF0FF018EF0FF043EF0FF0E0
:101E30000CC0D9FF0DC0DAFFDE50DE10D8A423EFAE
:101E40000FF025EF0FF043EF0FF004C0D9FF05C0EE
:101E5000DAFF020EDE18DE10D8A431EF0FF033EFF8
:101E60000FF043EF0FF004C0D9FF05C0DAFF010EF9
:101E7000DE6E000EDD6E0CC0D9FF0DC0DAFF010E64
:101E8000DE6E000EDD6E120005EC15F089EC14F02C
:101E9000D5EC14F0E5EC14F0C2EC14F07FEC11F08A
:101EA000000E0001A36F000EA26FCC0E046E000E98
:101EB000056E3BEC14F0CE0E046E000E056E55EC74
:101EC00014F0CA0E186E000E196ED00E1A6E000EA7
:101ED0001B6ED20E1C6E000E1D6ED40E1E6E000EFA
:101EE0001F6EA20E206E000E216E4CEC0AF0D0C0C8
:101EF00018F0D1C019F0D2C01AF0D3C01BF0D4C072
:101F00001CF0D5C01DF0D9EC0FF018C0A0F019C01E
:101F1000A1F0CA0E046E000E056ED0C006F0D1C04E
:101F200007F0D2C008F0D3C009F0A0C00AF0A1C0E9
:101F30000BF0A20E0C6E000E0D6EA3EC0EF0CAC0DC
:101F400004F0CBC005F03CEC0DF0900E00017C6F6E
:101F5000000E7D6FD4C07EF0D5C07FF0D2C080F07F
:101F6000D3C081F0D0C082F0D1C083F0CAC084F069
:101F7000CBC085F0CEC086F0CFC087F0CCC088F053
:101F8000CDC089F0A0C08AF0A1C08BF033EC12F074
:101F9000020E00018F6FA00E8E6F920EE82EFED7FC
:101FA0008E2FFCD78F2FFAD700F055EF0FF056EF9A
:101FB00000F01BBEE5EF0FF01B5009E1030E1A5CA9
:101FC000D8A0E5EF0FF0E7EF0FF0F9EF0FF0FE0EFE
:101FD0001E6EFF0E1F6E1CC020F01DC021F01E5093
:101FE00020261F502122205018262150192200EFB0
:101FF00010F01C5018261D5019221C06D8A01D06D2
:10200000000E0D6E090E0C6E1AC004F01BC005F018
:10201000000E076E170E066E9CEC14F004C00AF05A
:1020200005C00BF0BCEC10F00AC01EF00BC01FF096
:10203000000E0D6E040E0C6E1CC00AF01DC00BF0DD
:10204000BCEC10F00A501E260B501F22010E0D6E24
:10205000900E0C6E1CC00AF01DC00BF0BCEC10F012
:102060000A501E260B501F22000E0D6E640E0C6EC1
:102070001CC00AF01DC00BF0BCEC10F00A501E5E34
:102080000B501F5A18501E2619501F22040E1E24D2
:10209000126E000E1F20136E000E156E070E146ECA
:1020A000DBEC11F012C018F013C019F0120006504A
:1020B0000710D8B45EEF10F060EF10F069EF10F089
:1020C00006500710D8A467EF10F069EF10F06EEF1C
:1020D00010F004500AEC15F0BBEF10F020EE04F005
:1020E0000650D9260750DA22DE50DE10D8B47BEF36
:1020F00010F07DEF10F098EF10F020EE04F0065095
:10210000D9260750DA2210EE02F00650E1260750D9
:10211000E222DE50E65CE650800A0C6EDE50800A59
:102120000C58D8B096EF10F098EF10F0BBEF10F00D
:1021300020EE02F00650D9260750DA22DECF08F052
:10214000DDCF09F006C0D9FF07C0DAFFDECF0AF005
:10215000DDCF0BF008500A24D96E09500B20DA6E3F
:1021600004C0DFFF20EE02F00650D9260750DA2225
:10217000DE2A000EDD221200000E0F6E0DBEC5EF2E
:1021800010F0C3EF10F0CBEF10F00C6C0D1ED8B0B8
:102190000D2A010E0F6E0BBED2EF10F0D0EF10F033
:1021A000D8EF10F00A6C0B1ED8B00B2A010E0F1AD4
:1021B000000E116E000E106E0C500D10D8B4E3EF2F
:1021C00010F0E5EF10F00DEF11F0010E0E6EEDEFD7
:1021D00010F0D8900C360D360E2A0DAEF2EF10F03E
:1021E000F4EF10F0E9EF10F0D890103611360C50E3
:1021F0000A5C0D500B58D8A000EF11F002EF11F05F
:1022000007EF11F00C500A5E0D500B5A1080D89059
:102210000D320C320E2EF4EF10F00F50D8B413EF35
:1022200011F015EF11F019EF11F0106C111ED8B06C
:10223000112A10C00AF011C00BF0120059A023EFB0
:1022400011F025EF11F02FEF11F016C00DF017C0AF
:102250000EF014C00FF015C010F0C2EC13F019BE50
:1022600034EF11F036EF11F03CEF11F018C01DF013
:1022700019C01EF040EF11F0000E1E6E000E1D6E14
:10228000000E1C6E000E1B6E52EF11F0000E056E5C
:10229000200E046E14C006F015C007F057EC10F0C5
:1022A0001B4A1C2A1D501B5C1C50800A1A6E1E50B3
:1022B000800A1A58D8A05FEF11F061EF11F046EFD5
:1022C00011F059B066EF11F068EF11F072EF11F0F4
:1022D00016C00DF017C00EF014C00FF015C010F0AE
:1022E000C2EC13F016C004F017C005F020EC14F097
:1022F0001D500424146E1E500520156E1200839C80
:10230000839482968294859685927B9C7B947A9620
:102310007A947D967D92050E086E0F0E076EF10E73
:10232000E82EFED7072EFCD7082EFAD700F0030EB2
:10233000C0EC12F0F00EE82EFED7000E056E2C0E4B
:10234000AFEC14F0F00EE82EFED7000E056E280E4E
:10235000AFEC14F0F00EE82EFED7000E056E280E3E
:10236000AFEC14F0F00EE82EFED7000E056E080E4E
:10237000AFEC14F0F00EE82EFED7000E056E010E45
:10238000AFEC14F0680E076EE40EE82EFED7072EB1
:10239000FCD700D0000E056E060EAFEC14F0F00E68
:1023A000E82EFED7000E056E0C0EAFEC14F0F00E0A
:1023B000E82EFED71200000E176E13BEE4EF11F0E8
:1023C000E2EF11F0EAEF11F0126C131ED8B0132AED
:1023D000010E176E15BEF1EF11F0EFEF11F0F5EFF2
:1023E00011F0146C151ED8B0152A14501510D8B45D
:1023F000FCEF11F0FEEF11F022EF12F0010E166E5D
:1024000006EF12F0D89014361536162A15AE0BEFDB
:1024100012F00DEF12F002EF12F01450125C155092
:102420001358D8A016EF12F018EF12F01CEF12F0AC
:102430001450125E1550135AD89015321432162EBD
:102440000DEF12F01750D8B428EF12F02AEF12F067
:102450002EEF12F0126C131ED8B0132A12C012F015
:1024600013C013F01200010E9FEC13F07CC068F053
:102470007DC069F0190E00016A6F0E0E6B6F82C08D
:102480006CF083C06DF080C06EF081C06FF07EC0D4
:1024900070F07FC071F027EC13F07CC007F07DC0B6
:1024A00008F06FEC14F0020E9FEC13F07CC068F0A3
:1024B0007DC069F0010E00016A6F0E0E6B6F84C063
:1024C0006CF085C06DF086C06EF087C06FF088C07C
:1024D00070F089C071F08AC072F08BC073F027EC85
:1024E00013F07CC007F07DC008F06FEC14F0080E0C
:1024F00000018D6FF50E8C6F550EE82EFED78C2FD8
:10250000FCD78D2FFAD700D012000E0133AB8BEF22
:1025100012F08DEF12F0BEEF12F00B0ED46EDB0E48
:10252000D36E0001CA4BCB2B5BB002D07C9E01D096
:102530007C8E5BB002D0809601D080860001CBBF3C
:10254000AAEF12F0CB5108E1CA05D8A0AAEF12F009
:10255000ACEF12F0BCEF12F0CBBFBAEF12F0CB51E0
:1025600007E1050ECA5DD8B0B8EF12F0BAEF12F06D
:10257000BCEF12F07C9E80960E01339B5C921100A2
:10258000046E04A0C6EF12F0C8EF12F0CBEF12F009
:102590007A86CCEF12F07A9604A2D1EF12F0D3EF44
:1025A00012F0D6EF12F07A84D7EF12F07A9404A4E6
:1025B000DCEF12F0DEEF12F0E1EF12F07D86E2EFD9
:1025C00012F07D9604A6E7EF12F0E9EF12F0ECEFBF
:1025D00012F07D82EDEF12F07D92F9EC14F01A0EFC
:1025E000E82EFED700D0120062C066F063C067F02C
:1025F000000E0001A56F000EA46F12EF13F060C073
:1026000043F061C044F0660E456E000E466E64C035
:1026100047F065C048F017EC07F043500001A427CD
:102620004450A52366C0F6FF67C0F7FF000EF86EA2
:102630000800F5500009D8A420EF13F022EF13F0A2
:10264000FFEF12F0A4C060F0A5C061F012006C0EA4
:102650000001746F000E756F68C076F069C077F086
:10266000000E796F000E786F000E7B6F000E7A6F90
:10267000760E606F000E616F6AC062F06BC063F02F
:10268000740E646F000E656FF4EC12F00001785167
:102690006825D96E79516921DA6E000EDF6E12005D
:1026A000010E0A6E200E04180510D8B45AEF13F06C
:1026B0005CEF13F075EF13F0F70E066EFF0E076E6A
:1026C00004C008F005C009F006500826075009228A
:1026D000095009E1050E085CD8A071EF13F073EF03
:1026E00013F075EF13F0000E0A6E0AC004F0056ACD
:1026F0001200000EF66E2A0EF76E000EF86E00EE57
:10270000CCF010EE0AF00900F5CFEEFFE550E150F5
:10271000FAE1160EF66E2A0EF76E000EF86E09003C
:10272000F5CF5BF000EEA4F0280EEE6AE806FDE1BE
:102730005A6A596A5C905C92000144EF0FF0076E90
:102740000704D8A4A6EF13F0A8EF13F0B0EF13F02E
:10275000000E056E800EAFEC14F0F00EE82EFED7E2
:10276000020E0718D8A4B7EF13F0B9EF13F0C1EFBA
:1027700013F0000E056EC00EAFEC14F0F00EE82E54
:10278000FED71200000E136E000E126ED3EF13F080
:1027900011C004F0056A0FC006F010C007F057EC36
:1027A00010F0124A132A12500D24D96E13500E2025
:1027B000DA6EDF50116E1150D8A4E1EF13F0E3EFA1
:1027C00013F0C8EF13F0120017BEF1EF13F017501B
:1027D00006E11604D8B0EFEF13F0F1EF13F0FFEFBE
:1027E00013F016C018F017C019F0181E191E184A59
:1027F000192A18C016F019C017F003EF14F016C00C
:1028000016F017C017F01200D00E066EFF0E076EFE
:1028100004C008F005C009F0065008260750092238
:1028200009500AE10A0E085CD8A019EF14F01CEF59
:1028300014F0010E1DEF14F0000E046E056A120074
:1028400004C006F005C007F028EF14F0044A052A7A
:1028500004C0D9FF05C0DAFFDF50D8A432EF14F06E
:1028600034EF14F026EF14F00650045C046E0750A9
:102870000558056E120004C0D9FF05C0DAFF3C0EF2
:10288000DE18DE10D8A447EF14F049EF14F054EF2F
:1028900014F00001CE4BCF2B04C0D9FF05C0DAFFE6
:1028A000000EDE6E000EDD6E120004C0D9FF05C002
:1028B000DAFF3C0EDE18DE10D8A461EF14F063EFEF
:1028C00014F06EEF14F00001CA4BCB2B04C0D9FFFB
:1028D00005C0DAFF000EDE6E000EDD6E12007CEF2A
:1028E00014F0010E056E07C0D9FF08C0DAFFDF50F3
:1028F000AFEC14F0074A082A07C0D9FF08C0DAFF76
:10290000DF50D8A486EF14F088EF14F071EF14F0C4
:102910001200879087928194869C8198819A8690F4
:10292000829082927F907F9279947E9C7998799A16
:102930007E907A907A92120004500602F3CF08F04B
:10294000F4CF09F004500702F3500926055006029F
:10295000F350092608C004F009C005F01200066E05
:1029600005B002D07B9C01D07B8C06380F0BC0ECED
:1029700012F006500F0BC0EC12F0A00E00D0E82EA3
:10298000FDD71200868E0E01D251F80B0309D26FCB
:10299000D351F80B0509D36FD083D089D183D1816E
:1029A000EFEC14F00E01D08F1200D6501F0B40092F
:1029B000D66ED688D650F00B0809D66ED5880B0E89
:1029C000D46EDB0ED36ED58E12000E0135912B81A5
:1029D0002191298B1F8BF28AF28CF28E1200F30E5A
:1029E0000E01C617C691C751E00B1B09C76FC68FF2
:1029F00012007B841A0EE82EFED700D07B941200C2
:102A000028003B001F000C00E507809688967C8E0E
:072A1000849E120012000178
:020000040020DA
:10000000FF0FFF0FFF0FFF0FFF0FFF0FFF0FFF0F80
:020000040030CA
:0C000000AAFFFFFF9FFFFFFFFFFFFFFFB5
:00000001FF
